{
  "contractName": "Election",
  "abi": [
    {
      "inputs": [],
      "stateMutability": "nonpayable",
      "type": "constructor"
    },
    {
      "anonymous": false,
      "inputs": [
        {
          "indexed": false,
          "internalType": "uint256",
          "name": "id",
          "type": "uint256"
        },
        {
          "indexed": false,
          "internalType": "string",
          "name": "name",
          "type": "string"
        },
        {
          "indexed": false,
          "internalType": "uint256",
          "name": "votecount",
          "type": "uint256"
        }
      ],
      "name": "electionupdated",
      "type": "event"
    },
    {
      "inputs": [
        {
          "internalType": "uint256",
          "name": "",
          "type": "uint256"
        }
      ],
      "name": "candidates",
      "outputs": [
        {
          "internalType": "uint256",
          "name": "id",
          "type": "uint256"
        },
        {
          "internalType": "string",
          "name": "name",
          "type": "string"
        },
        {
          "internalType": "uint256",
          "name": "votecount",
          "type": "uint256"
        }
      ],
      "stateMutability": "view",
      "type": "function"
    },
    {
      "inputs": [],
      "name": "candidatesCount",
      "outputs": [
        {
          "internalType": "uint256",
          "name": "",
          "type": "uint256"
        }
      ],
      "stateMutability": "view",
      "type": "function"
    },
    {
      "inputs": [
        {
          "internalType": "address",
          "name": "",
          "type": "address"
        }
      ],
      "name": "votedornot",
      "outputs": [
        {
          "internalType": "bool",
          "name": "",
          "type": "bool"
        }
      ],
      "stateMutability": "view",
      "type": "function"
    },
    {
      "inputs": [
        {
          "internalType": "uint256",
          "name": "_id",
          "type": "uint256"
        }
      ],
      "name": "Vote",
      "outputs": [],
      "stateMutability": "nonpayable",
      "type": "function"
    }
  ],
  "bytecode": "0x608060405234801561001057600080fd5b506100556040518060400160405280600681526020017f4b50204f6c69000000000000000000000000000000000000000000000000000081525061016a60201b60201c565b6100996040518060400160405280601281526020017f536865722042616861647572204465756261000000000000000000000000000081525061016a60201b60201c565b6100dd6040518060400160405280600b81526020017f476167616e20546861706100000000000000000000000000000000000000000081525061016a60201b60201c565b6101216040518060400160405280601181526020017f5075737061204b616d616c20446168616c00000000000000000000000000000081525061016a60201b60201c565b6101656040518060400160405280601481526020017f44722e4261627572616d2042686174746172616900000000000000000000000081525061016a60201b60201c565b610281565b600080815480929190600101919050555060405180606001604052806000548152602001828152602001600081525060016000805481526020019081526020016000206000820151816000015560208201518160010190805190602001906101d39291906101e4565b506040820151816002015590505050565b828054600181600116156101000203166002900490600052602060002090601f016020900481019282601f1061022557805160ff1916838001178555610253565b82800160010185558215610253579182015b82811115610252578251825591602001919060010190610237565b5b5090506102609190610264565b5090565b5b8082111561027d576000816000905550600101610265565b5090565b61058a806102906000396000f3fe608060405234801561001057600080fd5b506004361061004c5760003560e01c80631bc57022146100515780632d35a8a2146100ab5780633477ee2e146100c9578063dcd6a5cd1461017e575b600080fd5b6100936004803603602081101561006757600080fd5b81019080803573ffffffffffffffffffffffffffffffffffffffff1690602001909291905050506101ac565b60405180821515815260200191505060405180910390f35b6100b36101cc565b6040518082815260200191505060405180910390f35b6100f5600480360360208110156100df57600080fd5b81019080803590602001909291905050506101d2565b6040518084815260200180602001838152602001828103825284818151815260200191508051906020019080838360005b83811015610141578082015181840152602081019050610126565b50505050905090810190601f16801561016e5780820380516001836020036101000a031916815260200191505b5094505050505060405180910390f35b6101aa6004803603602081101561019457600080fd5b8101908080359060200190929190505050610294565b005b60026020528060005260406000206000915054906101000a900460ff1681565b60005481565b6001602052806000526040600020600091509050806000015490806001018054600181600116156101000203166002900480601f0160208091040260200160405190810160405280929190818152602001828054600181600116156101000203166002900480156102845780601f1061025957610100808354040283529160200191610284565b820191906000526020600020905b81548152906001019060200180831161026757829003601f168201915b5050505050908060020154905083565b600260003373ffffffffffffffffffffffffffffffffffffffff1673ffffffffffffffffffffffffffffffffffffffff16815260200190815260200160002060009054906101000a900460ff1615610354576040517f08c379a00000000000000000000000000000000000000000000000000000000081526004018080602001828103825260168152602001807f596f75206861766520616c726561647920766f7465640000000000000000000081525060200191505060405180910390fd5b6000600160008381526020019081526020016000206000015414156103e1576040517f08c379a00000000000000000000000000000000000000000000000000000000081526004018080602001828103825260158152602001807f54686520696420646f6573206e6f74206578697374000000000000000000000081525060200191505060405180910390fd5b6001806000838152602001908152602001600020600201600082825401925050819055506001600260003373ffffffffffffffffffffffffffffffffffffffff1673ffffffffffffffffffffffffffffffffffffffff16815260200190815260200160002060006101000a81548160ff0219169083151502179055507f3c841f91385f410e6f12269c9a0c0eb656e360f1e2d6f91144cfd51a10a2a3188160016000848152602001908152602001600020600101600160008581526020019081526020016000206002015460405180848152602001806020018381526020018281038252848181546001816001161561010002031660029004815260200191508054600181600116156101000203166002900480156105415780601f1061051657610100808354040283529160200191610541565b820191906000526020600020905b81548152906001019060200180831161052457829003601f168201915b505094505050505060405180910390a15056fea2646970667358221220b82e18ae2335ae3ca94ffa4d8c96b133f4138966903685b7a6203a3006d72aa664736f6c63430007000033",
  "immutableReferences": {},
  "source": "// SPDX-License-Identifier: MIT\r\npragma solidity >=0.7.0;\r\n\r\ncontract Election {\r\n    // struct candidate\r\n    struct Candidate {\r\n        uint256 id;\r\n        string name;\r\n        uint256 votecount;\r\n    }\r\n\r\n    // candidate count\r\n    uint256 public candidatesCount;\r\n\r\n    // mapping candidate\r\n    mapping(uint256 => Candidate) public candidates;\r\n\r\n    //mapping a voter\r\n    mapping(address => bool) public votedornot;\r\n\r\n    // constructor\r\n    constructor() {\r\n        // Here the candidates are initialized\r\n        addCandidates(\"KP Oli\");\r\n        addCandidates(\"Sher Bahadur Deuba\");\r\n        addCandidates(\"Gagan Thapa\");\r\n        addCandidates(\"Puspa Kamal Dahal\");\r\n        addCandidates(\"Dr.Baburam Bhattarai\");\r\n    }\r\n\r\n    //setting the addCandidates as private\r\n    function addCandidates(string memory name) private {\r\n        candidatesCount++;\r\n        candidates[candidatesCount] = Candidate(candidatesCount, name, 0);\r\n    }\r\n\r\n    //setting up the event that is to be triggered once the transaction is done i.e voting\r\n    event electionupdated(uint256 id, string name, uint256 votecount);\r\n\r\n    function Vote(uint256 _id) public {\r\n        //make sure that the candiate has not votes\r\n        require(!votedornot[msg.sender], \"You have already voted\");\r\n\r\n        //make sure that the candidate is valid\r\n        require(candidates[_id].id != 0, \"The id does not exist\");\r\n\r\n        //now we increase the vote count of the candidate\r\n        candidates[_id].votecount += 1;\r\n\r\n        //now setting the voted value of the voter to be true\r\n        votedornot[msg.sender] = true;\r\n\r\n        emit electionupdated(\r\n            _id,\r\n            candidates[_id].name,\r\n            candidates[_id].votecount\r\n        );\r\n    }\r\n}\r\n",
  "sourcePath": "D:\\Ethereum voting app\\Ethereum-Voting-App\\contracts\\Election.sol",
  "compiler": {
    "name": "solc",
    "version": "0.7.0+commit.9e61f92b.Emscripten.clang"
  },
  "schemaVersion": "3.4.3",
  "updatedAt": "2021-12-22T12:59:52.515Z",
  "devdoc": {
    "kind": "dev",
    "methods": {},
    "version": 1
  },
  "userdoc": {
    "kind": "user",
    "methods": {},
    "version": 1
  }
}