{
  "contractName": "Election",
  "abi": [
    {
      "inputs": [],
      "stateMutability": "nonpayable",
      "type": "constructor"
    },
    {
      "anonymous": false,
      "inputs": [
        {
          "indexed": false,
          "internalType": "uint256",
          "name": "id",
          "type": "uint256"
        },
        {
          "indexed": false,
          "internalType": "string",
          "name": "name",
          "type": "string"
        },
        {
          "indexed": false,
          "internalType": "string",
          "name": "party",
          "type": "string"
        },
        {
          "indexed": false,
          "internalType": "uint256",
          "name": "votecount",
          "type": "uint256"
        }
      ],
      "name": "votesuccess",
      "type": "event"
    },
    {
      "inputs": [
        {
          "internalType": "uint256",
          "name": "",
          "type": "uint256"
        }
      ],
      "name": "candidates",
      "outputs": [
        {
          "internalType": "uint256",
          "name": "id",
          "type": "uint256"
        },
        {
          "internalType": "string",
          "name": "name",
          "type": "string"
        },
        {
          "internalType": "string",
          "name": "party",
          "type": "string"
        },
        {
          "internalType": "string",
          "name": "citizenshipNo",
          "type": "string"
        },
        {
          "internalType": "string",
          "name": "dob",
          "type": "string"
        },
        {
          "internalType": "string",
          "name": "img",
          "type": "string"
        },
        {
          "internalType": "string",
          "name": "email",
          "type": "string"
        },
        {
          "internalType": "uint256",
          "name": "votecount",
          "type": "uint256"
        }
      ],
      "stateMutability": "view",
      "type": "function",
      "constant": true
    },
    {
      "inputs": [],
      "name": "candidatesCount",
      "outputs": [
        {
          "internalType": "uint256",
          "name": "",
          "type": "uint256"
        }
      ],
      "stateMutability": "view",
      "type": "function",
      "constant": true
    },
    {
      "inputs": [
        {
          "internalType": "address",
          "name": "",
          "type": "address"
        }
      ],
      "name": "votedornot",
      "outputs": [
        {
          "internalType": "bool",
          "name": "",
          "type": "bool"
        }
      ],
      "stateMutability": "view",
      "type": "function",
      "constant": true
    },
    {
      "inputs": [
        {
          "internalType": "string",
          "name": "name",
          "type": "string"
        },
        {
          "internalType": "string",
          "name": "party",
          "type": "string"
        },
        {
          "internalType": "string",
          "name": "citizenshipNo",
          "type": "string"
        },
        {
          "internalType": "string",
          "name": "dob",
          "type": "string"
        },
        {
          "internalType": "string",
          "name": "img",
          "type": "string"
        },
        {
          "internalType": "string",
          "name": "email",
          "type": "string"
        }
      ],
      "name": "addCandidates",
      "outputs": [],
      "stateMutability": "nonpayable",
      "type": "function"
    },
    {
      "inputs": [
        {
          "internalType": "uint256",
          "name": "id",
          "type": "uint256"
        }
      ],
      "name": "delCandidates",
      "outputs": [],
      "stateMutability": "nonpayable",
      "type": "function"
    },
    {
      "inputs": [
        {
          "internalType": "uint256",
          "name": "id",
          "type": "uint256"
        },
        {
          "internalType": "string",
          "name": "name",
          "type": "string"
        },
        {
          "internalType": "string",
          "name": "party",
          "type": "string"
        },
        {
          "internalType": "string",
          "name": "citizenshipNo",
          "type": "string"
        },
        {
          "internalType": "string",
          "name": "dob",
          "type": "string"
        },
        {
          "internalType": "string",
          "name": "email",
          "type": "string"
        }
      ],
      "name": "editCandidates",
      "outputs": [],
      "stateMutability": "nonpayable",
      "type": "function"
    },
    {
      "inputs": [
        {
          "internalType": "uint256",
          "name": "_id",
          "type": "uint256"
        }
      ],
      "name": "Vote",
      "outputs": [],
      "stateMutability": "nonpayable",
      "type": "function"
    }
  ],
  "bytecode": "0x60806040523480156200001157600080fd5b506200014a6040518060400160405280600681526020017f4b50204f6c6900000000000000000000000000000000000000000000000000008152506040518060400160405280600381526020017f43504e00000000000000000000000000000000000000000000000000000000008152506040518060400160405280600981526020017f30313035373034383700000000000000000000000000000000000000000000008152506040518060400160405280600a81526020017f32322f30322f313935320000000000000000000000000000000000000000000081525060405180608001604052806055815260200162002006605591396040518060400160405280601081526020017f6b706f6c6931406e6570616c2e636f6d000000000000000000000000000000008152506200063060201b60201c565b620002826040518060400160405280601281526020017f53686572204261686164757220446575626100000000000000000000000000008152506040518060400160405280600381526020017f4e435000000000000000000000000000000000000000000000000000000000008152506040518060400160405280600981526020017f30313536373839393800000000000000000000000000000000000000000000008152506040518060400160405280600a81526020017f33302f30352f313935320000000000000000000000000000000000000000000081525060405180608001604052806055815260200162002006605591396040518060400160405280601681526020017f736865726264726465756261406e6570616c2e636f6d000000000000000000008152506200063060201b60201c565b620003ba6040518060400160405280600b81526020017f476167616e2054686170610000000000000000000000000000000000000000008152506040518060400160405280600381526020017f4e435000000000000000000000000000000000000000000000000000000000008152506040518060400160405280600981526020017f30313536373837393500000000000000000000000000000000000000000000008152506040518060400160405280600a81526020017f33302f30352f313938320000000000000000000000000000000000000000000081525060405180608001604052806055815260200162002006605591396040518060400160405280601481526020017f676167616e7468617061406e6570616c2e636f6d0000000000000000000000008152506200063060201b60201c565b620004f26040518060400160405280601181526020017f5075737061204b616d616c20446168616c0000000000000000000000000000008152506040518060400160405280600381526020017f554d4c00000000000000000000000000000000000000000000000000000000008152506040518060400160405280600981526020017f30313536373639383500000000000000000000000000000000000000000000008152506040518060400160405280600a81526020017f33302f30352f313936320000000000000000000000000000000000000000000081525060405180608001604052806055815260200162002006605591396040518060400160405280601581526020017f70757370616b646168616c406e6570616c2e636f6d00000000000000000000008152506200063060201b60201c565b6200062a6040518060400160405280600b81526020017f4b616d616c2054686170610000000000000000000000000000000000000000008152506040518060400160405280600381526020017f52505000000000000000000000000000000000000000000000000000000000008152506040518060400160405280600981526020017f30313536373738363700000000000000000000000000000000000000000000008152506040518060400160405280600a81526020017f33302f30352f313937320000000000000000000000000000000000000000000081525060405180608001604052806055815260200162002006605591396040518060400160405280601481526020017f6b616d616c7468617061406e6570616c2e636f6d0000000000000000000000008152506200063060201b60201c565b62000811565b6000808154809291906001019190505550604051806101000160405280600054815260200187815260200186815260200185815260200184815260200183815260200182815260200160008152506001600080548152602001908152602001600020600082015181600001556020820151816001019080519060200190620006ba9291906200076b565b506040820151816002019080519060200190620006d99291906200076b565b506060820151816003019080519060200190620006f89291906200076b565b506080820151816004019080519060200190620007179291906200076b565b5060a0820151816005019080519060200190620007369291906200076b565b5060c0820151816006019080519060200190620007559291906200076b565b5060e08201518160070155905050505050505050565b828054600181600116156101000203166002900490600052602060002090601f016020900481019282601f10620007ae57805160ff1916838001178555620007df565b82800160010185558215620007df579182015b82811115620007de578251825591602001919060010190620007c1565b5b509050620007ee9190620007f2565b5090565b5b808211156200080d576000816000905550600101620007f3565b5090565b6117e580620008216000396000f3fe608060405234801561001057600080fd5b506004361061007d5760003560e01c80633477ee2e1161005b5780633477ee2e14610128578063a22ccb84146103f9578063afa12837146107a7578063dcd6a5cd14610ac85761007d565b80631bc57022146100825780632d35a8a2146100dc5780633017b817146100fa575b600080fd5b6100c46004803603602081101561009857600080fd5b81019080803573ffffffffffffffffffffffffffffffffffffffff169060200190929190505050610af6565b60405180821515815260200191505060405180910390f35b6100e4610b16565b6040518082815260200191505060405180910390f35b6101266004803603602081101561011057600080fd5b8101908080359060200190929190505050610b1c565b005b6101546004803603602081101561013e57600080fd5b8101908080359060200190929190505050610cfe565b6040518089815260200180602001806020018060200180602001806020018060200188815260200187810387528e818151815260200191508051906020019080838360005b838110156101b4578082015181840152602081019050610199565b50505050905090810190601f1680156101e15780820380516001836020036101000a031916815260200191505b5087810386528d818151815260200191508051906020019080838360005b8381101561021a5780820151818401526020810190506101ff565b50505050905090810190601f1680156102475780820380516001836020036101000a031916815260200191505b5087810385528c818151815260200191508051906020019080838360005b83811015610280578082015181840152602081019050610265565b50505050905090810190601f1680156102ad5780820380516001836020036101000a031916815260200191505b5087810384528b818151815260200191508051906020019080838360005b838110156102e65780820151818401526020810190506102cb565b50505050905090810190601f1680156103135780820380516001836020036101000a031916815260200191505b5087810383528a818151815260200191508051906020019080838360005b8381101561034c578082015181840152602081019050610331565b50505050905090810190601f1680156103795780820380516001836020036101000a031916815260200191505b50878103825289818151815260200191508051906020019080838360005b838110156103b2578082015181840152602081019050610397565b50505050905090810190601f1680156103df5780820380516001836020036101000a031916815260200191505b509e50505050505050505050505050505060405180910390f35b6107a5600480360360c081101561040f57600080fd5b810190808035906020019064010000000081111561042c57600080fd5b82018360208201111561043e57600080fd5b8035906020019184600183028401116401000000008311171561046057600080fd5b91908080601f016020809104026020016040519081016040528093929190818152602001838380828437600081840152601f19601f820116905080830192505050505050509192919290803590602001906401000000008111156104c357600080fd5b8201836020820111156104d557600080fd5b803590602001918460018302840111640100000000831117156104f757600080fd5b91908080601f016020809104026020016040519081016040528093929190818152602001838380828437600081840152601f19601f8201169050808301925050505050505091929192908035906020019064010000000081111561055a57600080fd5b82018360208201111561056c57600080fd5b8035906020019184600183028401116401000000008311171561058e57600080fd5b91908080601f016020809104026020016040519081016040528093929190818152602001838380828437600081840152601f19601f820116905080830192505050505050509192919290803590602001906401000000008111156105f157600080fd5b82018360208201111561060357600080fd5b8035906020019184600183028401116401000000008311171561062557600080fd5b91908080601f016020809104026020016040519081016040528093929190818152602001838380828437600081840152601f19601f8201169050808301925050505050505091929192908035906020019064010000000081111561068857600080fd5b82018360208201111561069a57600080fd5b803590602001918460018302840111640100000000831117156106bc57600080fd5b91908080601f016020809104026020016040519081016040528093929190818152602001838380828437600081840152601f19601f8201169050808301925050505050505091929192908035906020019064010000000081111561071f57600080fd5b82018360208201111561073157600080fd5b8035906020019184600183028401116401000000008311171561075357600080fd5b91908080601f016020809104026020016040519081016040528093929190818152602001838380828437600081840152601f19601f8201169050808301925050505050505091929192905050506110d6565b005b610ac6600480360360c08110156107bd57600080fd5b8101908080359060200190929190803590602001906401000000008111156107e457600080fd5b8201836020820111156107f657600080fd5b8035906020019184600183028401116401000000008311171561081857600080fd5b91908080601f016020809104026020016040519081016040528093929190818152602001838380828437600081840152601f19601f8201169050808301925050505050505091929192908035906020019064010000000081111561087b57600080fd5b82018360208201111561088d57600080fd5b803590602001918460018302840111640100000000831117156108af57600080fd5b91908080601f016020809104026020016040519081016040528093929190818152602001838380828437600081840152601f19601f8201169050808301925050505050505091929192908035906020019064010000000081111561091257600080fd5b82018360208201111561092457600080fd5b8035906020019184600183028401116401000000008311171561094657600080fd5b91908080601f016020809104026020016040519081016040528093929190818152602001838380828437600081840152601f19601f820116905080830192505050505050509192919290803590602001906401000000008111156109a957600080fd5b8201836020820111156109bb57600080fd5b803590602001918460018302840111640100000000831117156109dd57600080fd5b91908080601f016020809104026020016040519081016040528093929190818152602001838380828437600081840152601f19601f82011690508083019250505050505050919291929080359060200190640100000000811115610a4057600080fd5b820183602082011115610a5257600080fd5b80359060200191846001830284011164010000000083111715610a7457600080fd5b91908080601f016020809104026020016040519081016040528093929190818152602001838380828437600081840152601f19601f820116905080830192505050505050509192919290505050611205565b005b610af460048036036020811015610ade57600080fd5b81019080803590602001909291905050506112e4565b005b60026020528060005260406000206000915054906101000a900460ff1681565b60005481565b5b600054811015610c625760016000600183018152602001908152602001600020600160008381526020019081526020016000206000820154816000015560018201816001019080546001816001161561010002031660029004610b81929190611643565b5060028201816002019080546001816001161561010002031660029004610ba9929190611643565b5060038201816003019080546001816001161561010002031660029004610bd1929190611643565b5060048201816004019080546001816001161561010002031660029004610bf9929190611643565b5060058201816005019080546001816001161561010002031660029004610c21929190611643565b5060068201816006019080546001816001161561010002031660029004610c49929190611643565b5060078201548160070155905050600181019050610b1d565b6001600080548152602001908152602001600020600080820160009055600182016000610c8f91906116ca565b600282016000610c9f91906116ca565b600382016000610caf91906116ca565b600482016000610cbf91906116ca565b600582016000610ccf91906116ca565b600682016000610cdf91906116ca565b6007820160009055505060008081548092919060019003919050555050565b6001602052806000526040600020600091509050806000015490806001018054600181600116156101000203166002900480601f016020809104026020016040519081016040528092919081815260200182805460018160011615610100020316600290048015610db05780601f10610d8557610100808354040283529160200191610db0565b820191906000526020600020905b815481529060010190602001808311610d9357829003601f168201915b505050505090806002018054600181600116156101000203166002900480601f016020809104026020016040519081016040528092919081815260200182805460018160011615610100020316600290048015610e4e5780601f10610e2357610100808354040283529160200191610e4e565b820191906000526020600020905b815481529060010190602001808311610e3157829003601f168201915b505050505090806003018054600181600116156101000203166002900480601f016020809104026020016040519081016040528092919081815260200182805460018160011615610100020316600290048015610eec5780601f10610ec157610100808354040283529160200191610eec565b820191906000526020600020905b815481529060010190602001808311610ecf57829003601f168201915b505050505090806004018054600181600116156101000203166002900480601f016020809104026020016040519081016040528092919081815260200182805460018160011615610100020316600290048015610f8a5780601f10610f5f57610100808354040283529160200191610f8a565b820191906000526020600020905b815481529060010190602001808311610f6d57829003601f168201915b505050505090806005018054600181600116156101000203166002900480601f0160208091040260200160405190810160405280929190818152602001828054600181600116156101000203166002900480156110285780601f10610ffd57610100808354040283529160200191611028565b820191906000526020600020905b81548152906001019060200180831161100b57829003601f168201915b505050505090806006018054600181600116156101000203166002900480601f0160208091040260200160405190810160405280929190818152602001828054600181600116156101000203166002900480156110c65780601f1061109b576101008083540402835291602001916110c6565b820191906000526020600020905b8154815290600101906020018083116110a957829003601f168201915b5050505050908060070154905088565b600080815480929190600101919050555060405180610100016040528060005481526020018781526020018681526020018581526020018481526020018381526020018281526020016000815250600160008054815260200190815260200160002060008201518160000155602082015181600101908051906020019061115e929190611712565b50604082015181600201908051906020019061117b929190611712565b506060820151816003019080519060200190611198929190611712565b5060808201518160040190805190602001906111b5929190611712565b5060a08201518160050190805190602001906111d2929190611712565b5060c08201518160060190805190602001906111ef929190611712565b5060e08201518160070155905050505050505050565b8460016000888152602001908152602001600020600101908051906020019061122f929190611712565b508360016000888152602001908152602001600020600201908051906020019061125a929190611712565b5082600160008881526020019081526020016000206003019080519060200190611285929190611712565b50816001600088815260200190815260200160002060040190805190602001906112b0929190611712565b50806001600088815260200190815260200160002060060190805190602001906112db929190611712565b50505050505050565b600260003373ffffffffffffffffffffffffffffffffffffffff1673ffffffffffffffffffffffffffffffffffffffff16815260200190815260200160002060009054906101000a900460ff16156113a4576040517f08c379a00000000000000000000000000000000000000000000000000000000081526004018080602001828103825260168152602001807f596f75206861766520616c726561647920766f7465640000000000000000000081525060200191505060405180910390fd5b600060016000838152602001908152602001600020600001541415611431576040517f08c379a00000000000000000000000000000000000000000000000000000000081526004018080602001828103825260158152602001807f54686520696420646f6573206e6f74206578697374000000000000000000000081525060200191505060405180910390fd5b6001806000838152602001908152602001600020600701600082825401925050819055506001600260003373ffffffffffffffffffffffffffffffffffffffff1673ffffffffffffffffffffffffffffffffffffffff16815260200190815260200160002060006101000a81548160ff0219169083151502179055507f41a0f5adf9ba10547a8306f144f827b9822e960cca172fc1e767ef4c0f6f20ec81600160008481526020019081526020016000206001016001600085815260200190815260200160002060020160016000868152602001908152602001600020600701546040518085815260200180602001806020018481526020018381038352868181546001816001161561010002031660029004815260200191508054600181600116156101000203166002900480156115ab5780601f10611580576101008083540402835291602001916115ab565b820191906000526020600020905b81548152906001019060200180831161158e57829003601f168201915b505083810382528581815460018160011615610100020316600290048152602001915080546001816001161561010002031660029004801561162e5780601f106116035761010080835404028352916020019161162e565b820191906000526020600020905b81548152906001019060200180831161161157829003601f168201915b5050965050505050505060405180910390a150565b828054600181600116156101000203166002900490600052602060002090601f016020900481019282601f1061167c57805485556116b9565b828001600101855582156116b957600052602060002091601f016020900482015b828111156116b857825482559160010191906001019061169d565b5b5090506116c69190611792565b5090565b50805460018160011615610100020316600290046000825580601f106116f0575061170f565b601f01602090049060005260206000209081019061170e9190611792565b5b50565b828054600181600116156101000203166002900490600052602060002090601f016020900481019282601f1061175357805160ff1916838001178555611781565b82800160010185558215611781579182015b82811115611780578251825591602001919060010190611765565b5b50905061178e9190611792565b5090565b5b808211156117ab576000816000905550600101611793565b509056fea2646970667358221220fc73d824cd313c2fa8f6c143cc229a872004e71a702d39bfa2a013f81dc1942164736f6c6343000700003368747470733a2f2f7265732e636c6f7564696e6172792e636f6d2f64796e62727a657a732f696d6167652f75706c6f61642f76313634323636373234372f75706c6f6164732f4252424d5f6979656574712e6a7067",
  "immutableReferences": {},
  "source": "// SPDX-License-Identifier: MIT\r\npragma solidity >=0.7.0;\r\n\r\ncontract Election {\r\n    // struct candidate\r\n    struct Candidate {\r\n        uint256 id;\r\n        string name;\r\n        string party;\r\n        string citizenshipNo;\r\n        string dob;\r\n        string img;\r\n        string email;\r\n        uint256 votecount;\r\n    }\r\n\r\n    // candidate count\r\n    uint256 public candidatesCount;\r\n\r\n    // mapping candidate\r\n    mapping(uint256 => Candidate) public candidates;\r\n\r\n    //mapping a voter\r\n    mapping(address => bool) public votedornot;\r\n\r\n    // constructor\r\n    constructor() {\r\n        // Here the candidates are initialized\r\n         addCandidates(\"KP Oli\",\"CPN\",\"010570487\",\"22/02/1952\",\"https://res.cloudinary.com/dynbrzezs/image/upload/v1642667247/uploads/BRBM_iyeetq.jpg\",\"kpoli1@nepal.com\");\r\n        addCandidates(\"Sher Bahadur Deuba\",\"NCP\",\"015678998\",\"30/05/1952\",\"https://res.cloudinary.com/dynbrzezs/image/upload/v1642667247/uploads/BRBM_iyeetq.jpg\",\"sherbdrdeuba@nepal.com\");\r\n        addCandidates(\"Gagan Thapa\",\"NCP\",\"015678795\",\"30/05/1982\",\"https://res.cloudinary.com/dynbrzezs/image/upload/v1642667247/uploads/BRBM_iyeetq.jpg\",\"gaganthapa@nepal.com\");\r\n        addCandidates(\"Puspa Kamal Dahal\",\"UML\",\"015676985\",\"30/05/1962\",\"https://res.cloudinary.com/dynbrzezs/image/upload/v1642667247/uploads/BRBM_iyeetq.jpg\",\"puspakdahal@nepal.com\");\r\n        addCandidates(\"Kamal Thapa\",\"RPP\",\"015677867\",\"30/05/1972\",\"https://res.cloudinary.com/dynbrzezs/image/upload/v1642667247/uploads/BRBM_iyeetq.jpg\",\"kamalthapa@nepal.com\");\r\n    }\r\n\r\n    //setting the addCandidates as public\r\n     function addCandidates(string memory name,string memory party,string memory citizenshipNo,string memory dob,string memory img,string memory email) public{\r\n        candidatesCount++;\r\n        candidates[candidatesCount] = Candidate(candidatesCount,name,party,citizenshipNo,dob,img,email,0);\r\n    }\r\n\r\n    //function to delete the canidate\r\n     function delCandidates(uint id) public{\r\n        while(id < candidatesCount){\r\n            candidates[id] = candidates[id+1];\r\n            id += 1;\r\n        }\r\n        delete candidates[candidatesCount];\r\n        candidatesCount--;\r\n    }\r\n\r\n    //function to edit the candidate\r\n    function editCandidates(uint id, string memory name, string memory party,string memory citizenshipNo,string memory dob,string memory email) public{\r\n        candidates[id].name = name;\r\n        candidates[id].party = party;\r\n        candidates[id].citizenshipNo = citizenshipNo;\r\n        candidates[id].dob = dob;\r\n        candidates[id].email = email;\r\n\r\n    }\r\n\r\n\r\n    //setting up the event that is to be triggered once the transaction is done i.e voting\r\n     event votesuccess(\r\n        uint id,\r\n        string name,\r\n        string party,\r\n        uint votecount\r\n    );\r\n\r\n    function Vote(uint256 _id) public {\r\n        //make sure that the candiate has not votes\r\n        require(!votedornot[msg.sender], \"You have already voted\");\r\n\r\n        //make sure that the candidate is valid\r\n        require(candidates[_id].id != 0, \"The id does not exist\");\r\n\r\n        //now we increase the vote count of the candidate\r\n        candidates[_id].votecount += 1;\r\n\r\n        //now setting the voted value of the voter to be true\r\n        votedornot[msg.sender] = true;\r\n\r\n        emit votesuccess( _id, candidates[_id].name,candidates[_id].party, candidates[_id].votecount);\r\n    }\r\n}",
  "sourcePath": "C:\\Users\\HP\\Documents\\Ethereum Voting App\\contracts\\Election.sol",
  "compiler": {
    "name": "solc",
    "version": "0.7.0+commit.9e61f92b.Emscripten.clang"
  },
  "schemaVersion": "3.4.3",
  "updatedAt": "2022-01-26T14:34:55.364Z",
  "networkType": "ethereum",
  "devdoc": {
    "kind": "dev",
    "methods": {},
    "version": 1
  },
  "userdoc": {
    "kind": "user",
    "methods": {},
    "version": 1
  }
}