{
  "contractName": "Election",
  "abi": [
    {
      "inputs": [],
      "stateMutability": "nonpayable",
      "type": "constructor"
    },
    {
      "inputs": [
        {
          "internalType": "uint256",
          "name": "",
          "type": "uint256"
        }
      ],
      "name": "candidates",
      "outputs": [
        {
          "internalType": "uint256",
          "name": "id",
          "type": "uint256"
        },
        {
          "internalType": "string",
          "name": "name",
          "type": "string"
        },
        {
          "internalType": "string",
          "name": "party",
          "type": "string"
        },
        {
          "internalType": "string",
          "name": "citizenshipNo",
          "type": "string"
        },
        {
          "internalType": "string",
          "name": "dob",
          "type": "string"
        },
        {
          "internalType": "string",
          "name": "img",
          "type": "string"
        },
        {
          "internalType": "string",
          "name": "email",
          "type": "string"
        },
        {
          "internalType": "uint256",
          "name": "votecount",
          "type": "uint256"
        }
      ],
      "stateMutability": "view",
      "type": "function",
      "constant": true
    },
    {
      "inputs": [],
      "name": "candidatesCount",
      "outputs": [
        {
          "internalType": "uint256",
          "name": "",
          "type": "uint256"
        }
      ],
      "stateMutability": "view",
      "type": "function",
      "constant": true
    },
    {
      "inputs": [],
      "name": "temp",
      "outputs": [
        {
          "internalType": "uint256",
          "name": "",
          "type": "uint256"
        }
      ],
      "stateMutability": "view",
      "type": "function",
      "constant": true
    },
    {
      "inputs": [
        {
          "internalType": "address",
          "name": "",
          "type": "address"
        }
      ],
      "name": "votedornot",
      "outputs": [
        {
          "internalType": "bool",
          "name": "",
          "type": "bool"
        }
      ],
      "stateMutability": "view",
      "type": "function",
      "constant": true
    },
    {
      "inputs": [
        {
          "internalType": "string",
          "name": "name",
          "type": "string"
        },
        {
          "internalType": "string",
          "name": "party",
          "type": "string"
        },
        {
          "internalType": "string",
          "name": "citizenshipNo",
          "type": "string"
        },
        {
          "internalType": "string",
          "name": "dob",
          "type": "string"
        },
        {
          "internalType": "string",
          "name": "img",
          "type": "string"
        },
        {
          "internalType": "string",
          "name": "email",
          "type": "string"
        }
      ],
      "name": "addCandidates",
      "outputs": [],
      "stateMutability": "nonpayable",
      "type": "function"
    },
    {
      "inputs": [
        {
          "internalType": "uint256",
          "name": "id",
          "type": "uint256"
        }
      ],
      "name": "delCandidates",
      "outputs": [],
      "stateMutability": "nonpayable",
      "type": "function"
    },
    {
      "inputs": [
        {
          "internalType": "uint256",
          "name": "id",
          "type": "uint256"
        },
        {
          "internalType": "string",
          "name": "name",
          "type": "string"
        },
        {
          "internalType": "string",
          "name": "party",
          "type": "string"
        },
        {
          "internalType": "string",
          "name": "citizenshipNo",
          "type": "string"
        },
        {
          "internalType": "string",
          "name": "dob",
          "type": "string"
        },
        {
          "internalType": "string",
          "name": "email",
          "type": "string"
        }
      ],
      "name": "editCandidates",
      "outputs": [],
      "stateMutability": "nonpayable",
      "type": "function"
    },
    {
      "inputs": [
        {
          "internalType": "uint256",
          "name": "_id",
          "type": "uint256"
        }
      ],
      "name": "Vote",
      "outputs": [],
      "stateMutability": "nonpayable",
      "type": "function"
    }
  ],
  "bytecode": "0x60806040526040518060a00160405280602b60ff168152602001602360ff168152602001603060ff168152602001604660ff168152602001603260ff1681525060019060056200005192919062000921565b5060056006553480156200006457600080fd5b506200019d6040518060400160405280600681526020017f4b50204f6c6900000000000000000000000000000000000000000000000000008152506040518060400160405280600381526020017f43504e00000000000000000000000000000000000000000000000000000000008152506040518060400160405280600981526020017f30313035373034383700000000000000000000000000000000000000000000008152506040518060400160405280600a81526020017f32322f30322f3139353200000000000000000000000000000000000000000000815250604051806080016040528060578152602001620022c0605791396040518060400160405280601081526020017f6b706f6c6931406e6570616c2e636f6d000000000000000000000000000000008152506200068360201b60201c565b620002d56040518060400160405280601281526020017f53686572204261686164757220446575626100000000000000000000000000008152506040518060400160405280600381526020017f4e435000000000000000000000000000000000000000000000000000000000008152506040518060400160405280600981526020017f30313536373839393800000000000000000000000000000000000000000000008152506040518060400160405280600a81526020017f33302f30352f313935320000000000000000000000000000000000000000000081525060405180608001604052806059815260200162002211605991396040518060400160405280601681526020017f736865726264726465756261406e6570616c2e636f6d000000000000000000008152506200068360201b60201c565b6200040d6040518060400160405280600b81526020017f476167616e2054686170610000000000000000000000000000000000000000008152506040518060400160405280600381526020017f4e435000000000000000000000000000000000000000000000000000000000008152506040518060400160405280600981526020017f30313536373837393500000000000000000000000000000000000000000000008152506040518060400160405280600a81526020017f33302f30352f31393832000000000000000000000000000000000000000000008152506040518060800160405280605681526020016200226a605691396040518060400160405280601481526020017f676167616e7468617061406e6570616c2e636f6d0000000000000000000000008152506200068360201b60201c565b620005456040518060400160405280601181526020017f5075737061204b616d616c20446168616c0000000000000000000000000000008152506040518060400160405280600381526020017f554d4c00000000000000000000000000000000000000000000000000000000008152506040518060400160405280600981526020017f30313536373639383500000000000000000000000000000000000000000000008152506040518060400160405280600a81526020017f33302f30352f3139363200000000000000000000000000000000000000000000815250604051806080016040528060548152602001620021bd605491396040518060400160405280601581526020017f70757370616b646168616c406e6570616c2e636f6d00000000000000000000008152506200068360201b60201c565b6200067d6040518060400160405280600b81526020017f4b616d616c2054686170610000000000000000000000000000000000000000008152506040518060400160405280600381526020017f52505000000000000000000000000000000000000000000000000000000000008152506040518060400160405280600981526020017f30313536373738363700000000000000000000000000000000000000000000008152506040518060400160405280600a81526020017f33302f30352f31393732000000000000000000000000000000000000000000008152506040518060800160405280605381526020016200216a605391396040518060400160405280601481526020017f6b616d616c7468617061406e6570616c2e636f6d0000000000000000000000008152506200068360201b60201c565b62000a11565b600080815480929190600101919050555060006006541115620007f6576001806006540360058110620006b257fe5b015460078190555060405180610100016040528060005481526020018781526020018681526020018581526020018481526020018381526020018281526020016007548152506008600080548152602001908152602001600020600082015181600001556020820151816001019080519060200190620007349291906200096b565b506040820151816002019080519060200190620007539291906200096b565b506060820151816003019080519060200190620007729291906200096b565b506080820151816004019080519060200190620007919291906200096b565b5060a0820151816005019080519060200190620007b09291906200096b565b5060c0820151816006019080519060200190620007cf9291906200096b565b5060e082015181600701559050506006600081548092919060019003919050555062000919565b6040518061010001604052806000548152602001878152602001868152602001858152602001848152602001838152602001828152602001600081525060086000805481526020019081526020016000206000820151816000015560208201518160010190805190602001906200086f9291906200096b565b5060408201518160020190805190602001906200088e9291906200096b565b506060820151816003019080519060200190620008ad9291906200096b565b506080820151816004019080519060200190620008cc9291906200096b565b5060a0820151816005019080519060200190620008eb9291906200096b565b5060c08201518160060190805190602001906200090a9291906200096b565b5060e082015181600701559050505b505050505050565b826005810192821562000958579160200282015b8281111562000957578251829060ff1690559160200191906001019062000935565b5b509050620009679190620009f2565b5090565b828054600181600116156101000203166002900490600052602060002090601f016020900481019282601f10620009ae57805160ff1916838001178555620009df565b82800160010185558215620009df579182015b82811115620009de578251825591602001919060010190620009c1565b5b509050620009ee9190620009f2565b5090565b5b8082111562000a0d576000816000905550600101620009f3565b5090565b6117498062000a216000396000f3fe608060405234801561001057600080fd5b50600436106100885760003560e01c8063673402e51161005b578063673402e514610404578063a22ccb8414610422578063afa12837146107d0578063dcd6a5cd14610af157610088565b80631bc570221461008d5780632d35a8a2146100e75780633017b817146101055780633477ee2e14610133575b600080fd5b6100cf600480360360208110156100a357600080fd5b81019080803573ffffffffffffffffffffffffffffffffffffffff169060200190929190505050610b1f565b60405180821515815260200191505060405180910390f35b6100ef610b3f565b6040518082815260200191505060405180910390f35b6101316004803603602081101561011b57600080fd5b8101908080359060200190929190505050610b45565b005b61015f6004803603602081101561014957600080fd5b8101908080359060200190929190505050610d27565b6040518089815260200180602001806020018060200180602001806020018060200188815260200187810387528e818151815260200191508051906020019080838360005b838110156101bf5780820151818401526020810190506101a4565b50505050905090810190601f1680156101ec5780820380516001836020036101000a031916815260200191505b5087810386528d818151815260200191508051906020019080838360005b8381101561022557808201518184015260208101905061020a565b50505050905090810190601f1680156102525780820380516001836020036101000a031916815260200191505b5087810385528c818151815260200191508051906020019080838360005b8381101561028b578082015181840152602081019050610270565b50505050905090810190601f1680156102b85780820380516001836020036101000a031916815260200191505b5087810384528b818151815260200191508051906020019080838360005b838110156102f15780820151818401526020810190506102d6565b50505050905090810190601f16801561031e5780820380516001836020036101000a031916815260200191505b5087810383528a818151815260200191508051906020019080838360005b8381101561035757808201518184015260208101905061033c565b50505050905090810190601f1680156103845780820380516001836020036101000a031916815260200191505b50878103825289818151815260200191508051906020019080838360005b838110156103bd5780820151818401526020810190506103a2565b50505050905090810190601f1680156103ea5780820380516001836020036101000a031916815260200191505b509e50505050505050505050505050505060405180910390f35b61040c6110ff565b6040518082815260200191505060405180910390f35b6107ce600480360360c081101561043857600080fd5b810190808035906020019064010000000081111561045557600080fd5b82018360208201111561046757600080fd5b8035906020019184600183028401116401000000008311171561048957600080fd5b91908080601f016020809104026020016040519081016040528093929190818152602001838380828437600081840152601f19601f820116905080830192505050505050509192919290803590602001906401000000008111156104ec57600080fd5b8201836020820111156104fe57600080fd5b8035906020019184600183028401116401000000008311171561052057600080fd5b91908080601f016020809104026020016040519081016040528093929190818152602001838380828437600081840152601f19601f8201169050808301925050505050505091929192908035906020019064010000000081111561058357600080fd5b82018360208201111561059557600080fd5b803590602001918460018302840111640100000000831117156105b757600080fd5b91908080601f016020809104026020016040519081016040528093929190818152602001838380828437600081840152601f19601f8201169050808301925050505050505091929192908035906020019064010000000081111561061a57600080fd5b82018360208201111561062c57600080fd5b8035906020019184600183028401116401000000008311171561064e57600080fd5b91908080601f016020809104026020016040519081016040528093929190818152602001838380828437600081840152601f19601f820116905080830192505050505050509192919290803590602001906401000000008111156106b157600080fd5b8201836020820111156106c357600080fd5b803590602001918460018302840111640100000000831117156106e557600080fd5b91908080601f016020809104026020016040519081016040528093929190818152602001838380828437600081840152601f19601f8201169050808301925050505050505091929192908035906020019064010000000081111561074857600080fd5b82018360208201111561075a57600080fd5b8035906020019184600183028401116401000000008311171561077c57600080fd5b91908080601f016020809104026020016040519081016040528093929190818152602001838380828437600081840152601f19601f820116905080830192505050505050509192919290505050611105565b005b610aef600480360360c08110156107e657600080fd5b81019080803590602001909291908035906020019064010000000081111561080d57600080fd5b82018360208201111561081f57600080fd5b8035906020019184600183028401116401000000008311171561084157600080fd5b91908080601f016020809104026020016040519081016040528093929190818152602001838380828437600081840152601f19601f820116905080830192505050505050509192919290803590602001906401000000008111156108a457600080fd5b8201836020820111156108b657600080fd5b803590602001918460018302840111640100000000831117156108d857600080fd5b91908080601f016020809104026020016040519081016040528093929190818152602001838380828437600081840152601f19601f8201169050808301925050505050505091929192908035906020019064010000000081111561093b57600080fd5b82018360208201111561094d57600080fd5b8035906020019184600183028401116401000000008311171561096f57600080fd5b91908080601f016020809104026020016040519081016040528093929190818152602001838380828437600081840152601f19601f820116905080830192505050505050509192919290803590602001906401000000008111156109d257600080fd5b8201836020820111156109e457600080fd5b80359060200191846001830284011164010000000083111715610a0657600080fd5b91908080601f016020809104026020016040519081016040528093929190818152602001838380828437600081840152601f19601f82011690508083019250505050505050919291929080359060200190640100000000811115610a6957600080fd5b820183602082011115610a7b57600080fd5b80359060200191846001830284011164010000000083111715610a9d57600080fd5b91908080601f016020809104026020016040519081016040528093929190818152602001838380828437600081840152601f19601f820116905080830192505050505050509192919290505050611388565b005b610b1d60048036036020811015610b0757600080fd5b8101908080359060200190929190505050611467565b005b60096020528060005260406000206000915054906101000a900460ff1681565b60005481565b5b600054811015610c8b5760086000600183018152602001908152602001600020600860008381526020019081526020016000206000820154816000015560018201816001019080546001816001161561010002031660029004610baa9291906115a7565b5060028201816002019080546001816001161561010002031660029004610bd29291906115a7565b5060038201816003019080546001816001161561010002031660029004610bfa9291906115a7565b5060048201816004019080546001816001161561010002031660029004610c229291906115a7565b5060058201816005019080546001816001161561010002031660029004610c4a9291906115a7565b5060068201816006019080546001816001161561010002031660029004610c729291906115a7565b5060078201548160070155905050600181019050610b46565b6008600080548152602001908152602001600020600080820160009055600182016000610cb8919061162e565b600282016000610cc8919061162e565b600382016000610cd8919061162e565b600482016000610ce8919061162e565b600582016000610cf8919061162e565b600682016000610d08919061162e565b6007820160009055505060008081548092919060019003919050555050565b6008602052806000526040600020600091509050806000015490806001018054600181600116156101000203166002900480601f016020809104026020016040519081016040528092919081815260200182805460018160011615610100020316600290048015610dd95780601f10610dae57610100808354040283529160200191610dd9565b820191906000526020600020905b815481529060010190602001808311610dbc57829003601f168201915b505050505090806002018054600181600116156101000203166002900480601f016020809104026020016040519081016040528092919081815260200182805460018160011615610100020316600290048015610e775780601f10610e4c57610100808354040283529160200191610e77565b820191906000526020600020905b815481529060010190602001808311610e5a57829003601f168201915b505050505090806003018054600181600116156101000203166002900480601f016020809104026020016040519081016040528092919081815260200182805460018160011615610100020316600290048015610f155780601f10610eea57610100808354040283529160200191610f15565b820191906000526020600020905b815481529060010190602001808311610ef857829003601f168201915b505050505090806004018054600181600116156101000203166002900480601f016020809104026020016040519081016040528092919081815260200182805460018160011615610100020316600290048015610fb35780601f10610f8857610100808354040283529160200191610fb3565b820191906000526020600020905b815481529060010190602001808311610f9657829003601f168201915b505050505090806005018054600181600116156101000203166002900480601f0160208091040260200160405190810160405280929190818152602001828054600181600116156101000203166002900480156110515780601f1061102657610100808354040283529160200191611051565b820191906000526020600020905b81548152906001019060200180831161103457829003601f168201915b505050505090806006018054600181600116156101000203166002900480601f0160208091040260200160405190810160405280929190818152602001828054600181600116156101000203166002900480156110ef5780601f106110c4576101008083540402835291602001916110ef565b820191906000526020600020905b8154815290600101906020018083116110d257829003601f168201915b5050505050908060070154905088565b60075481565b60008081548092919060010191905055506000600654111561126957600180600654036005811061113257fe5b0154600781905550604051806101000160405280600054815260200187815260200186815260200185815260200184815260200183815260200182815260200160075481525060086000805481526020019081526020016000206000820151816000015560208201518160010190805190602001906111b2929190611676565b5060408201518160020190805190602001906111cf929190611676565b5060608201518160030190805190602001906111ec929190611676565b506080820151816004019080519060200190611209929190611676565b5060a0820151816005019080519060200190611226929190611676565b5060c0820151816006019080519060200190611243929190611676565b5060e0820151816007015590505060066000815480929190600190039190505550611380565b6040518061010001604052806000548152602001878152602001868152602001858152602001848152602001838152602001828152602001600081525060086000805481526020019081526020016000206000820151816000015560208201518160010190805190602001906112e0929190611676565b5060408201518160020190805190602001906112fd929190611676565b50606082015181600301908051906020019061131a929190611676565b506080820151816004019080519060200190611337929190611676565b5060a0820151816005019080519060200190611354929190611676565b5060c0820151816006019080519060200190611371929190611676565b5060e082015181600701559050505b505050505050565b846008600088815260200190815260200160002060010190805190602001906113b2929190611676565b50836008600088815260200190815260200160002060020190805190602001906113dd929190611676565b5082600860008881526020019081526020016000206003019080519060200190611408929190611676565b5081600860008881526020019081526020016000206004019080519060200190611433929190611676565b508060086000888152602001908152602001600020600601908051906020019061145e929190611676565b50505050505050565b600960003373ffffffffffffffffffffffffffffffffffffffff1673ffffffffffffffffffffffffffffffffffffffff16815260200190815260200160002060009054906101000a900460ff1615611527576040517f08c379a00000000000000000000000000000000000000000000000000000000081526004018080602001828103825260168152602001807f596f75206861766520616c726561647920766f7465640000000000000000000081525060200191505060405180910390fd5b600160086000838152602001908152602001600020600701600082825401925050819055506001600960003373ffffffffffffffffffffffffffffffffffffffff1673ffffffffffffffffffffffffffffffffffffffff16815260200190815260200160002060006101000a81548160ff02191690831515021790555050565b828054600181600116156101000203166002900490600052602060002090601f016020900481019282601f106115e0578054855561161d565b8280016001018555821561161d57600052602060002091601f016020900482015b8281111561161c578254825591600101919060010190611601565b5b50905061162a91906116f6565b5090565b50805460018160011615610100020316600290046000825580601f106116545750611673565b601f01602090049060005260206000209081019061167291906116f6565b5b50565b828054600181600116156101000203166002900490600052602060002090601f016020900481019282601f106116b757805160ff19168380011785556116e5565b828001600101855582156116e5579182015b828111156116e45782518255916020019190600101906116c9565b5b5090506116f291906116f6565b5090565b5b8082111561170f5760008160009055506001016116f7565b509056fea26469706673582212201b4f163f8378d836739adbe7f205109c73b058f136e9ce4db3e04434031c23d764736f6c6343000700003368747470733a2f2f7265732e636c6f7564696e6172792e636f6d2f64796e62727a657a732f696d6167652f75706c6f61642f76313634343232323937332f75706c6f6164732f6b745f6f74753874702e6a706768747470733a2f2f7265732e636c6f7564696e6172792e636f6d2f64796e62727a657a732f696d6167652f75706c6f61642f76313634343232323936352f75706c6f6164732f706b645f6e6d68336e6d2e6a706768747470733a2f2f7265732e636c6f7564696e6172792e636f6d2f64796e62727a657a732f696d6167652f75706c6f61642f76313634333839353830302f75706c6f6164732f5342444e43505f315f7a6b703679622e6a706768747470733a2f2f7265732e636c6f7564696e6172792e636f6d2f64796e62727a657a732f696d6167652f75706c6f61642f76313634333839353830392f75706c6f6164732f47544e43505f6672393935322e6a706768747470733a2f2f7265732e636c6f7564696e6172792e636f6d2f64796e62727a657a732f696d6167652f75706c6f61642f76313634333839363030302f75706c6f6164732f6b702d6f6c695f6433703161342e6a7067",
  "immutableReferences": {},
  "source": "// SPDX-License-Identifier: MIT\r\npragma solidity >=0.7.0;\r\n\r\ncontract Election {\r\n    // struct candidate\r\n    struct Candidate {\r\n        uint256 id;\r\n        string name;\r\n        string party;\r\n        string citizenshipNo;\r\n        string dob;\r\n        string img;\r\n        string email;\r\n        uint256 votecount;\r\n    }\r\n\r\n    // candidate count\r\n    uint256 public candidatesCount;\r\n\r\n    // random vote count assign for demostration\r\n    uint[5] ranvote = [43,35,48,70,50];\r\n    uint i= 5;\r\n    uint public temp;\r\n\r\n    // mapping candidate\r\n    mapping(uint256 => Candidate) public candidates;\r\n\r\n    //mapping a voter\r\n    mapping(address => bool) public votedornot;\r\n\r\n    // constructor\r\n    constructor() {\r\n        // Here the candidates are initialized\r\n        addCandidates(\"KP Oli\",\"CPN\",\"010570487\",\"22/02/1952\",\"https://res.cloudinary.com/dynbrzezs/image/upload/v1643896000/uploads/kp-oli_d3p1a4.jpg\",\"kpoli1@nepal.com\");\r\n        addCandidates(\"Sher Bahadur Deuba\",\"NCP\",\"015678998\",\"30/05/1952\",\"https://res.cloudinary.com/dynbrzezs/image/upload/v1643895800/uploads/SBDNCP_1_zkp6yb.jpg\",\"sherbdrdeuba@nepal.com\");\r\n        addCandidates(\"Gagan Thapa\",\"NCP\",\"015678795\",\"30/05/1982\",\"https://res.cloudinary.com/dynbrzezs/image/upload/v1643895809/uploads/GTNCP_fr9952.jpg\",\"gaganthapa@nepal.com\");\r\n        addCandidates(\"Puspa Kamal Dahal\",\"UML\",\"015676985\",\"30/05/1962\",\"https://res.cloudinary.com/dynbrzezs/image/upload/v1644222965/uploads/pkd_nmh3nm.jpg\",\"puspakdahal@nepal.com\");\r\n        addCandidates(\"Kamal Thapa\",\"RPP\",\"015677867\",\"30/05/1972\",\"https://res.cloudinary.com/dynbrzezs/image/upload/v1644222973/uploads/kt_otu8tp.jpg\",\"kamalthapa@nepal.com\");\r\n    }\r\n\r\n    //setting the addCandidates as public\r\n     function addCandidates(string memory name,string memory party,string memory citizenshipNo,string memory dob,string memory img,string memory email) public{\r\n        candidatesCount++;\r\n        if(i>0){\r\n        temp = ranvote[i-1];    \r\n        candidates[candidatesCount] = Candidate(candidatesCount,name,party,citizenshipNo,dob,img,email,temp);\r\n        i--;\r\n        }else{\r\n        candidates[candidatesCount] = Candidate(candidatesCount,name,party,citizenshipNo,dob,img,email,0);\r\n        }\r\n\r\n    }\r\n\r\n    //function to delete the canidate\r\n     function delCandidates(uint id) public{\r\n        while(id < candidatesCount){\r\n            candidates[id] = candidates[id+1];\r\n            id += 1;\r\n        }\r\n        delete candidates[candidatesCount];\r\n        candidatesCount--;\r\n    }\r\n\r\n    //function to edit the candidate\r\n    function editCandidates(uint id, string memory name, string memory party,string memory citizenshipNo,string memory dob,string memory email) public{\r\n        candidates[id].name = name;\r\n        candidates[id].party = party;\r\n        candidates[id].citizenshipNo = citizenshipNo;\r\n        candidates[id].dob = dob;\r\n        candidates[id].email = email;\r\n\r\n    }\r\n\r\n\r\n    //setting up the event that is to be triggered once the transaction is done i.e voting\r\n    //  event votesuccess(\r\n    //     uint id,\r\n    //     string name,\r\n    //     string party,\r\n    //     uint votecount\r\n    // );\r\n\r\n    function Vote(uint256 _id) public {\r\n        //make sure that the candiate has not votes\r\n        require(!votedornot[msg.sender], \"You have already voted\");\r\n\r\n        //make sure that the candidate is valid\r\n        // require(candidates[_id].id != 0, \"The id does not exist\");\r\n\r\n        //now we increase the vote count of the candidate\r\n        candidates[_id].votecount += 1;\r\n\r\n        //now setting the voted value of the voter to be true\r\n        votedornot[msg.sender] = true;\r\n\r\n        // emit votesuccess( _id, candidates[_id].name,candidates[_id].party, candidates[_id].votecount);\r\n    }\r\n}",
  "sourcePath": "C:\\Users\\HP\\Documents\\Ethereum Voting App\\contracts\\Election.sol",
  "compiler": {
    "name": "solc",
    "version": "0.7.0+commit.9e61f92b.Emscripten.clang"
  },
  "schemaVersion": "3.4.3",
  "updatedAt": "2022-03-05T12:01:50.167Z",
  "networkType": "ethereum",
  "devdoc": {
    "kind": "dev",
    "methods": {},
    "version": 1
  },
  "userdoc": {
    "kind": "user",
    "methods": {},
    "version": 1
  }
}