{
  "contractName": "Election",
  "abi": [
    {
      "inputs": [],
      "stateMutability": "nonpayable",
      "type": "constructor"
    },
    {
      "anonymous": false,
      "inputs": [
        {
          "indexed": false,
          "internalType": "uint256",
          "name": "id",
          "type": "uint256"
        },
        {
          "indexed": false,
          "internalType": "string",
          "name": "name",
          "type": "string"
        },
        {
          "indexed": false,
          "internalType": "string",
          "name": "party",
          "type": "string"
        },
        {
          "indexed": false,
          "internalType": "uint256",
          "name": "votecount",
          "type": "uint256"
        }
      ],
      "name": "votesuccess",
      "type": "event"
    },
    {
      "inputs": [
        {
          "internalType": "uint256",
          "name": "",
          "type": "uint256"
        }
      ],
      "name": "candidates",
      "outputs": [
        {
          "internalType": "uint256",
          "name": "id",
          "type": "uint256"
        },
        {
          "internalType": "string",
          "name": "name",
          "type": "string"
        },
        {
          "internalType": "string",
          "name": "party",
          "type": "string"
        },
        {
          "internalType": "string",
          "name": "dob",
          "type": "string"
        },
        {
          "internalType": "string",
          "name": "img",
          "type": "string"
        },
        {
          "internalType": "string",
          "name": "slogan",
          "type": "string"
        },
        {
          "internalType": "uint256",
          "name": "votecount",
          "type": "uint256"
        }
      ],
      "stateMutability": "view",
      "type": "function",
      "constant": true
    },
    {
      "inputs": [],
      "name": "candidatesCount",
      "outputs": [
        {
          "internalType": "uint256",
          "name": "",
          "type": "uint256"
        }
      ],
      "stateMutability": "view",
      "type": "function",
      "constant": true
    },
    {
      "inputs": [
        {
          "internalType": "address",
          "name": "",
          "type": "address"
        }
      ],
      "name": "votedornot",
      "outputs": [
        {
          "internalType": "bool",
          "name": "",
          "type": "bool"
        }
      ],
      "stateMutability": "view",
      "type": "function",
      "constant": true
    },
    {
      "inputs": [
        {
          "internalType": "string",
          "name": "name",
          "type": "string"
        },
        {
          "internalType": "string",
          "name": "party",
          "type": "string"
        },
        {
          "internalType": "string",
          "name": "dob",
          "type": "string"
        },
        {
          "internalType": "string",
          "name": "img",
          "type": "string"
        },
        {
          "internalType": "string",
          "name": "slogan",
          "type": "string"
        }
      ],
      "name": "addCandidates",
      "outputs": [],
      "stateMutability": "nonpayable",
      "type": "function"
    },
    {
      "inputs": [
        {
          "internalType": "uint256",
          "name": "id",
          "type": "uint256"
        }
      ],
      "name": "delCandidates",
      "outputs": [],
      "stateMutability": "nonpayable",
      "type": "function"
    },
    {
      "inputs": [
        {
          "internalType": "uint256",
          "name": "_id",
          "type": "uint256"
        }
      ],
      "name": "Vote",
      "outputs": [],
      "stateMutability": "nonpayable",
      "type": "function"
    }
  ],
  "bytecode": "0x60806040523480156200001157600080fd5b50620001146040518060400160405280600681526020017f4b50204f6c6900000000000000000000000000000000000000000000000000008152506040518060400160405280600381526020017f43504e00000000000000000000000000000000000000000000000000000000008152506040518060400160405280600a81526020017f32322f30322f3139353200000000000000000000000000000000000000000000815250604051806080016040528060558152602001620015b2605591396040518060400160405280601381526020017f49206c6f766520636f6d656479204e6570616c000000000000000000000000008152506200021c60201b60201c565b620002166040518060400160405280601281526020017f53686572204261686164757220446575626100000000000000000000000000008152506040518060400160405280600381526020017f4e435000000000000000000000000000000000000000000000000000000000008152506040518060400160405280600a81526020017f33302f30352f3139353200000000000000000000000000000000000000000000815250604051806080016040528060558152602001620015b2605591396040518060400160405280601281526020017f4920646f6e277420646f20616e7468696e6700000000000000000000000000008152506200021c60201b60201c565b620003d6565b60008081548092919060010191905055506040518060e001604052806000548152602001868152602001858152602001848152602001838152602001828152602001600081525060016000805481526020019081526020016000206000820151816000015560208201518160010190805190602001906200029f92919062000330565b506040820151816002019080519060200190620002be92919062000330565b506060820151816003019080519060200190620002dd92919062000330565b506080820151816004019080519060200190620002fc92919062000330565b5060a08201518160050190805190602001906200031b92919062000330565b5060c082015181600601559050505050505050565b828054600181600116156101000203166002900490600052602060002090601f016020900481019282601f106200037357805160ff1916838001178555620003a4565b82800160010185558215620003a4579182015b82811115620003a357825182559160200191906001019062000386565b5b509050620003b39190620003b7565b5090565b5b80821115620003d2576000816000905550600101620003b8565b5090565b6111cc80620003e66000396000f3fe608060405234801561001057600080fd5b50600436106100625760003560e01c806304c43fe0146100675780631bc570221461037e5780632d35a8a2146103d85780633017b817146103f65780633477ee2e14610424578063dcd6a5cd14610689575b600080fd5b61037c600480360360a081101561007d57600080fd5b810190808035906020019064010000000081111561009a57600080fd5b8201836020820111156100ac57600080fd5b803590602001918460018302840111640100000000831117156100ce57600080fd5b91908080601f016020809104026020016040519081016040528093929190818152602001838380828437600081840152601f19601f8201169050808301925050505050505091929192908035906020019064010000000081111561013157600080fd5b82018360208201111561014357600080fd5b8035906020019184600183028401116401000000008311171561016557600080fd5b91908080601f016020809104026020016040519081016040528093929190818152602001838380828437600081840152601f19601f820116905080830192505050505050509192919290803590602001906401000000008111156101c857600080fd5b8201836020820111156101da57600080fd5b803590602001918460018302840111640100000000831117156101fc57600080fd5b91908080601f016020809104026020016040519081016040528093929190818152602001838380828437600081840152601f19601f8201169050808301925050505050505091929192908035906020019064010000000081111561025f57600080fd5b82018360208201111561027157600080fd5b8035906020019184600183028401116401000000008311171561029357600080fd5b91908080601f016020809104026020016040519081016040528093929190818152602001838380828437600081840152601f19601f820116905080830192505050505050509192919290803590602001906401000000008111156102f657600080fd5b82018360208201111561030857600080fd5b8035906020019184600183028401116401000000008311171561032a57600080fd5b91908080601f016020809104026020016040519081016040528093929190818152602001838380828437600081840152601f19601f8201169050808301925050505050505091929192905050506106b7565b005b6103c06004803603602081101561039457600080fd5b81019080803573ffffffffffffffffffffffffffffffffffffffff1690602001909291905050506107c1565b60405180821515815260200191505060405180910390f35b6103e06107e1565b6040518082815260200191505060405180910390f35b6104226004803603602081101561040c57600080fd5b81019080803590602001909291905050506107e7565b005b6104506004803603602081101561043a57600080fd5b8101908080359060200190929190505050610991565b60405180888152602001806020018060200180602001806020018060200187815260200186810386528c818151815260200191508051906020019080838360005b838110156104ac578082015181840152602081019050610491565b50505050905090810190601f1680156104d95780820380516001836020036101000a031916815260200191505b5086810385528b818151815260200191508051906020019080838360005b838110156105125780820151818401526020810190506104f7565b50505050905090810190601f16801561053f5780820380516001836020036101000a031916815260200191505b5086810384528a818151815260200191508051906020019080838360005b8381101561057857808201518184015260208101905061055d565b50505050905090810190601f1680156105a55780820380516001836020036101000a031916815260200191505b50868103835289818151815260200191508051906020019080838360005b838110156105de5780820151818401526020810190506105c3565b50505050905090810190601f16801561060b5780820380516001836020036101000a031916815260200191505b50868103825288818151815260200191508051906020019080838360005b83811015610644578082015181840152602081019050610629565b50505050905090810190601f1680156106715780820380516001836020036101000a031916815260200191505b509c5050505050505050505050505060405180910390f35b6106b56004803603602081101561069f57600080fd5b8101908080359060200190929190505050610ccb565b005b60008081548092919060010191905055506040518060e0016040528060005481526020018681526020018581526020018481526020018381526020018281526020016000815250600160008054815260200190815260200160002060008201518160000155602082015181600101908051906020019061073892919061102a565b50604082015181600201908051906020019061075592919061102a565b50606082015181600301908051906020019061077292919061102a565b50608082015181600401908051906020019061078f92919061102a565b5060a08201518160050190805190602001906107ac92919061102a565b5060c082015181600601559050505050505050565b60026020528060005260406000206000915054906101000a900460ff1681565b60005481565b5b600054811015610905576001600060018301815260200190815260200160002060016000838152602001908152602001600020600082015481600001556001820181600101908054600181600116156101000203166002900461084c9291906110aa565b50600282018160020190805460018160011615610100020316600290046108749291906110aa565b506003820181600301908054600181600116156101000203166002900461089c9291906110aa565b50600482018160040190805460018160011615610100020316600290046108c49291906110aa565b50600582018160050190805460018160011615610100020316600290046108ec9291906110aa565b50600682015481600601559050506001810190506107e8565b60016000805481526020019081526020016000206000808201600090556001820160006109329190611131565b6002820160006109429190611131565b6003820160006109529190611131565b6004820160006109629190611131565b6005820160006109729190611131565b6006820160009055505060008081548092919060019003919050555050565b6001602052806000526040600020600091509050806000015490806001018054600181600116156101000203166002900480601f016020809104026020016040519081016040528092919081815260200182805460018160011615610100020316600290048015610a435780601f10610a1857610100808354040283529160200191610a43565b820191906000526020600020905b815481529060010190602001808311610a2657829003601f168201915b505050505090806002018054600181600116156101000203166002900480601f016020809104026020016040519081016040528092919081815260200182805460018160011615610100020316600290048015610ae15780601f10610ab657610100808354040283529160200191610ae1565b820191906000526020600020905b815481529060010190602001808311610ac457829003601f168201915b505050505090806003018054600181600116156101000203166002900480601f016020809104026020016040519081016040528092919081815260200182805460018160011615610100020316600290048015610b7f5780601f10610b5457610100808354040283529160200191610b7f565b820191906000526020600020905b815481529060010190602001808311610b6257829003601f168201915b505050505090806004018054600181600116156101000203166002900480601f016020809104026020016040519081016040528092919081815260200182805460018160011615610100020316600290048015610c1d5780601f10610bf257610100808354040283529160200191610c1d565b820191906000526020600020905b815481529060010190602001808311610c0057829003601f168201915b505050505090806005018054600181600116156101000203166002900480601f016020809104026020016040519081016040528092919081815260200182805460018160011615610100020316600290048015610cbb5780601f10610c9057610100808354040283529160200191610cbb565b820191906000526020600020905b815481529060010190602001808311610c9e57829003601f168201915b5050505050908060060154905087565b600260003373ffffffffffffffffffffffffffffffffffffffff1673ffffffffffffffffffffffffffffffffffffffff16815260200190815260200160002060009054906101000a900460ff1615610d8b576040517f08c379a00000000000000000000000000000000000000000000000000000000081526004018080602001828103825260168152602001807f596f75206861766520616c726561647920766f7465640000000000000000000081525060200191505060405180910390fd5b600060016000838152602001908152602001600020600001541415610e18576040517f08c379a00000000000000000000000000000000000000000000000000000000081526004018080602001828103825260158152602001807f54686520696420646f6573206e6f74206578697374000000000000000000000081525060200191505060405180910390fd5b6001806000838152602001908152602001600020600601600082825401925050819055506001600260003373ffffffffffffffffffffffffffffffffffffffff1673ffffffffffffffffffffffffffffffffffffffff16815260200190815260200160002060006101000a81548160ff0219169083151502179055507f41a0f5adf9ba10547a8306f144f827b9822e960cca172fc1e767ef4c0f6f20ec8160016000848152602001908152602001600020600101600160008581526020019081526020016000206002016001600086815260200190815260200160002060060154604051808581526020018060200180602001848152602001838103835286818154600181600116156101000203166002900481526020019150805460018160011615610100020316600290048015610f925780601f10610f6757610100808354040283529160200191610f92565b820191906000526020600020905b815481529060010190602001808311610f7557829003601f168201915b50508381038252858181546001816001161561010002031660029004815260200191508054600181600116156101000203166002900480156110155780601f10610fea57610100808354040283529160200191611015565b820191906000526020600020905b815481529060010190602001808311610ff857829003601f168201915b5050965050505050505060405180910390a150565b828054600181600116156101000203166002900490600052602060002090601f016020900481019282601f1061106b57805160ff1916838001178555611099565b82800160010185558215611099579182015b8281111561109857825182559160200191906001019061107d565b5b5090506110a69190611179565b5090565b828054600181600116156101000203166002900490600052602060002090601f016020900481019282601f106110e35780548555611120565b8280016001018555821561112057600052602060002091601f016020900482015b8281111561111f578254825591600101919060010190611104565b5b50905061112d9190611179565b5090565b50805460018160011615610100020316600290046000825580601f106111575750611176565b601f0160209004906000526020600020908101906111759190611179565b5b50565b5b8082111561119257600081600090555060010161117a565b509056fea264697066735822122048c563c76aa32ce3610e32c0501a2eff44d9d5657111713abc7bf8a99de9e9ff64736f6c6343000700003368747470733a2f2f7265732e636c6f7564696e6172792e636f6d2f64796e62727a657a732f696d6167652f75706c6f61642f76313634323636373234372f75706c6f6164732f4252424d5f6979656574712e6a7067",
  "immutableReferences": {},
  "source": "// SPDX-License-Identifier: MIT\r\npragma solidity >=0.7.0;\r\n\r\ncontract Election {\r\n    // struct candidate\r\n    struct Candidate {\r\n        uint256 id;\r\n        string name;\r\n        string party;\r\n        string dob;\r\n        string img;\r\n        string slogan;\r\n        uint256 votecount;\r\n    }\r\n\r\n    // candidate count\r\n    uint256 public candidatesCount;\r\n\r\n    // mapping candidate\r\n    mapping(uint256 => Candidate) public candidates;\r\n\r\n    //mapping a voter\r\n    mapping(address => bool) public votedornot;\r\n\r\n    // constructor\r\n    constructor() {\r\n        // Here the candidates are initialized\r\n         addCandidates(\"KP Oli\",\"CPN\",\"22/02/1952\",\"https://res.cloudinary.com/dynbrzezs/image/upload/v1642667247/uploads/BRBM_iyeetq.jpg\",\"I love comedy Nepal\");\r\n        addCandidates(\"Sher Bahadur Deuba\",\"NCP\",\"30/05/1952\",\"https://res.cloudinary.com/dynbrzezs/image/upload/v1642667247/uploads/BRBM_iyeetq.jpg\",\"I don't do anthing\");\r\n    }\r\n\r\n    //setting the addCandidates as public\r\n     function addCandidates(string memory name,string memory party,string memory dob,string memory img,string memory slogan) public{\r\n        candidatesCount++;\r\n        candidates[candidatesCount] = Candidate(candidatesCount,name,party,dob,img,slogan,0);\r\n    }\r\n\r\n    //function to delete the canidate\r\n     function delCandidates(uint id) public{\r\n        while(id < candidatesCount){\r\n            candidates[id] = candidates[id+1];\r\n            id += 1;\r\n        }\r\n        delete candidates[candidatesCount];\r\n        candidatesCount--;\r\n    }\r\n\r\n\r\n\r\n    //setting up the event that is to be triggered once the transaction is done i.e voting\r\n     event votesuccess(\r\n        uint id,\r\n        string name,\r\n        string party,\r\n        uint votecount\r\n    );\r\n\r\n    function Vote(uint256 _id) public {\r\n        //make sure that the candiate has not votes\r\n        require(!votedornot[msg.sender], \"You have already voted\");\r\n\r\n        //make sure that the candidate is valid\r\n        require(candidates[_id].id != 0, \"The id does not exist\");\r\n\r\n        //now we increase the vote count of the candidate\r\n        candidates[_id].votecount += 1;\r\n\r\n        //now setting the voted value of the voter to be true\r\n        votedornot[msg.sender] = true;\r\n\r\n        emit votesuccess( _id, candidates[_id].name,candidates[_id].party, candidates[_id].votecount);\r\n    }\r\n}\r\n",
  "sourcePath": "C:\\Users\\HP\\Documents\\Ethereum Voting App\\contracts\\Election.sol",
  "compiler": {
    "name": "solc",
    "version": "0.7.0+commit.9e61f92b.Emscripten.clang"
  },
  "schemaVersion": "3.4.3",
  "updatedAt": "2022-01-20T11:30:27.166Z",
  "networkType": "ethereum",
  "devdoc": {
    "kind": "dev",
    "methods": {},
    "version": 1
  },
  "userdoc": {
    "kind": "user",
    "methods": {},
    "version": 1
  }
}