{
  "contractName": "Election",
  "abi": [
    {
      "inputs": [],
      "stateMutability": "nonpayable",
      "type": "constructor"
    },
    {
      "anonymous": false,
      "inputs": [
        {
          "indexed": false,
          "internalType": "uint256",
          "name": "id",
          "type": "uint256"
        },
        {
          "indexed": false,
          "internalType": "string",
          "name": "name",
          "type": "string"
        },
        {
          "indexed": false,
          "internalType": "string",
          "name": "party",
          "type": "string"
        },
        {
          "indexed": false,
          "internalType": "uint256",
          "name": "votecount",
          "type": "uint256"
        }
      ],
      "name": "votesuccess",
      "type": "event"
    },
    {
      "inputs": [
        {
          "internalType": "uint256",
          "name": "",
          "type": "uint256"
        }
      ],
      "name": "candidates",
      "outputs": [
        {
          "internalType": "uint256",
          "name": "id",
          "type": "uint256"
        },
        {
          "internalType": "string",
          "name": "name",
          "type": "string"
        },
        {
          "internalType": "string",
          "name": "party",
          "type": "string"
        },
        {
          "internalType": "string",
          "name": "citizenshipNo",
          "type": "string"
        },
        {
          "internalType": "string",
          "name": "dob",
          "type": "string"
        },
        {
          "internalType": "string",
          "name": "img",
          "type": "string"
        },
        {
          "internalType": "string",
          "name": "email",
          "type": "string"
        },
        {
          "internalType": "uint256",
          "name": "votecount",
          "type": "uint256"
        }
      ],
      "stateMutability": "view",
      "type": "function",
      "constant": true
    },
    {
      "inputs": [],
      "name": "candidatesCount",
      "outputs": [
        {
          "internalType": "uint256",
          "name": "",
          "type": "uint256"
        }
      ],
      "stateMutability": "view",
      "type": "function",
      "constant": true
    },
    {
      "inputs": [
        {
          "internalType": "address",
          "name": "",
          "type": "address"
        }
      ],
      "name": "votedornot",
      "outputs": [
        {
          "internalType": "bool",
          "name": "",
          "type": "bool"
        }
      ],
      "stateMutability": "view",
      "type": "function",
      "constant": true
    },
    {
      "inputs": [
        {
          "internalType": "string",
          "name": "name",
          "type": "string"
        },
        {
          "internalType": "string",
          "name": "party",
          "type": "string"
        },
        {
          "internalType": "string",
          "name": "citizenshipNo",
          "type": "string"
        },
        {
          "internalType": "string",
          "name": "dob",
          "type": "string"
        },
        {
          "internalType": "string",
          "name": "img",
          "type": "string"
        },
        {
          "internalType": "string",
          "name": "email",
          "type": "string"
        }
      ],
      "name": "addCandidates",
      "outputs": [],
      "stateMutability": "nonpayable",
      "type": "function"
    },
    {
      "inputs": [
        {
          "internalType": "uint256",
          "name": "id",
          "type": "uint256"
        }
      ],
      "name": "delCandidates",
      "outputs": [],
      "stateMutability": "nonpayable",
      "type": "function"
    },
    {
      "inputs": [
        {
          "internalType": "uint256",
          "name": "_id",
          "type": "uint256"
        }
      ],
      "name": "Vote",
      "outputs": [],
      "stateMutability": "nonpayable",
      "type": "function"
    }
  ],
  "bytecode": "0x60806040523480156200001157600080fd5b506200014a6040518060400160405280600681526020017f4b50204f6c6900000000000000000000000000000000000000000000000000008152506040518060400160405280600381526020017f43504e00000000000000000000000000000000000000000000000000000000008152506040518060400160405280600981526020017f30313035373034383700000000000000000000000000000000000000000000008152506040518060400160405280600a81526020017f32322f30322f313935320000000000000000000000000000000000000000000081525060405180608001604052806055815260200162001beb605591396040518060400160405280601081526020017f6b706f6c6931406e6570616c2e636f6d000000000000000000000000000000008152506200063060201b60201c565b620002826040518060400160405280601281526020017f53686572204261686164757220446575626100000000000000000000000000008152506040518060400160405280600381526020017f4e435000000000000000000000000000000000000000000000000000000000008152506040518060400160405280600981526020017f30313536373839393800000000000000000000000000000000000000000000008152506040518060400160405280600a81526020017f33302f30352f313935320000000000000000000000000000000000000000000081525060405180608001604052806055815260200162001beb605591396040518060400160405280601681526020017f736865726264726465756261406e6570616c2e636f6d000000000000000000008152506200063060201b60201c565b620003ba6040518060400160405280600b81526020017f476167616e2054686170610000000000000000000000000000000000000000008152506040518060400160405280600381526020017f4e435000000000000000000000000000000000000000000000000000000000008152506040518060400160405280600981526020017f30313536373837393500000000000000000000000000000000000000000000008152506040518060400160405280600a81526020017f33302f30352f313938320000000000000000000000000000000000000000000081525060405180608001604052806055815260200162001beb605591396040518060400160405280601481526020017f676167616e7468617061406e6570616c2e636f6d0000000000000000000000008152506200063060201b60201c565b620004f26040518060400160405280601181526020017f5075737061204b616d616c20446168616c0000000000000000000000000000008152506040518060400160405280600381526020017f554d4c00000000000000000000000000000000000000000000000000000000008152506040518060400160405280600981526020017f30313536373639383500000000000000000000000000000000000000000000008152506040518060400160405280600a81526020017f33302f30352f313936320000000000000000000000000000000000000000000081525060405180608001604052806055815260200162001beb605591396040518060400160405280601581526020017f70757370616b646168616c406e6570616c2e636f6d00000000000000000000008152506200063060201b60201c565b6200062a6040518060400160405280600b81526020017f4b616d616c2054686170610000000000000000000000000000000000000000008152506040518060400160405280600381526020017f52505000000000000000000000000000000000000000000000000000000000008152506040518060400160405280600981526020017f30313536373738363700000000000000000000000000000000000000000000008152506040518060400160405280600a81526020017f33302f30352f313937320000000000000000000000000000000000000000000081525060405180608001604052806055815260200162001beb605591396040518060400160405280601481526020017f6b616d616c7468617061406e6570616c2e636f6d0000000000000000000000008152506200063060201b60201c565b62000811565b6000808154809291906001019190505550604051806101000160405280600054815260200187815260200186815260200185815260200184815260200183815260200182815260200160008152506001600080548152602001908152602001600020600082015181600001556020820151816001019080519060200190620006ba9291906200076b565b506040820151816002019080519060200190620006d99291906200076b565b506060820151816003019080519060200190620006f89291906200076b565b506080820151816004019080519060200190620007179291906200076b565b5060a0820151816005019080519060200190620007369291906200076b565b5060c0820151816006019080519060200190620007559291906200076b565b5060e08201518160070155905050505050505050565b828054600181600116156101000203166002900490600052602060002090601f016020900481019282601f10620007ae57805160ff1916838001178555620007df565b82800160010185558215620007df579182015b82811115620007de578251825591602001919060010190620007c1565b5b509050620007ee9190620007f2565b5090565b5b808211156200080d576000816000905550600101620007f3565b5090565b6113ca80620008216000396000f3fe608060405234801561001057600080fd5b50600436106100625760003560e01c80631bc57022146100675780632d35a8a2146100c15780633017b817146100df5780633477ee2e1461010d578063a22ccb84146103de578063dcd6a5cd1461078c575b600080fd5b6100a96004803603602081101561007d57600080fd5b81019080803573ffffffffffffffffffffffffffffffffffffffff1690602001909291905050506107ba565b60405180821515815260200191505060405180910390f35b6100c96107da565b6040518082815260200191505060405180910390f35b61010b600480360360208110156100f557600080fd5b81019080803590602001909291905050506107e0565b005b6101396004803603602081101561012357600080fd5b81019080803590602001909291905050506109c2565b6040518089815260200180602001806020018060200180602001806020018060200188815260200187810387528e818151815260200191508051906020019080838360005b8381101561019957808201518184015260208101905061017e565b50505050905090810190601f1680156101c65780820380516001836020036101000a031916815260200191505b5087810386528d818151815260200191508051906020019080838360005b838110156101ff5780820151818401526020810190506101e4565b50505050905090810190601f16801561022c5780820380516001836020036101000a031916815260200191505b5087810385528c818151815260200191508051906020019080838360005b8381101561026557808201518184015260208101905061024a565b50505050905090810190601f1680156102925780820380516001836020036101000a031916815260200191505b5087810384528b818151815260200191508051906020019080838360005b838110156102cb5780820151818401526020810190506102b0565b50505050905090810190601f1680156102f85780820380516001836020036101000a031916815260200191505b5087810383528a818151815260200191508051906020019080838360005b83811015610331578082015181840152602081019050610316565b50505050905090810190601f16801561035e5780820380516001836020036101000a031916815260200191505b50878103825289818151815260200191508051906020019080838360005b8381101561039757808201518184015260208101905061037c565b50505050905090810190601f1680156103c45780820380516001836020036101000a031916815260200191505b509e50505050505050505050505050505060405180910390f35b61078a600480360360c08110156103f457600080fd5b810190808035906020019064010000000081111561041157600080fd5b82018360208201111561042357600080fd5b8035906020019184600183028401116401000000008311171561044557600080fd5b91908080601f016020809104026020016040519081016040528093929190818152602001838380828437600081840152601f19601f820116905080830192505050505050509192919290803590602001906401000000008111156104a857600080fd5b8201836020820111156104ba57600080fd5b803590602001918460018302840111640100000000831117156104dc57600080fd5b91908080601f016020809104026020016040519081016040528093929190818152602001838380828437600081840152601f19601f8201169050808301925050505050505091929192908035906020019064010000000081111561053f57600080fd5b82018360208201111561055157600080fd5b8035906020019184600183028401116401000000008311171561057357600080fd5b91908080601f016020809104026020016040519081016040528093929190818152602001838380828437600081840152601f19601f820116905080830192505050505050509192919290803590602001906401000000008111156105d657600080fd5b8201836020820111156105e857600080fd5b8035906020019184600183028401116401000000008311171561060a57600080fd5b91908080601f016020809104026020016040519081016040528093929190818152602001838380828437600081840152601f19601f8201169050808301925050505050505091929192908035906020019064010000000081111561066d57600080fd5b82018360208201111561067f57600080fd5b803590602001918460018302840111640100000000831117156106a157600080fd5b91908080601f016020809104026020016040519081016040528093929190818152602001838380828437600081840152601f19601f8201169050808301925050505050505091929192908035906020019064010000000081111561070457600080fd5b82018360208201111561071657600080fd5b8035906020019184600183028401116401000000008311171561073857600080fd5b91908080601f016020809104026020016040519081016040528093929190818152602001838380828437600081840152601f19601f820116905080830192505050505050509192919290505050610d9a565b005b6107b8600480360360208110156107a257600080fd5b8101908080359060200190929190505050610ec9565b005b60026020528060005260406000206000915054906101000a900460ff1681565b60005481565b5b6000548110156109265760016000600183018152602001908152602001600020600160008381526020019081526020016000206000820154816000015560018201816001019080546001816001161561010002031660029004610845929190611228565b506002820181600201908054600181600116156101000203166002900461086d929190611228565b5060038201816003019080546001816001161561010002031660029004610895929190611228565b50600482018160040190805460018160011615610100020316600290046108bd929190611228565b50600582018160050190805460018160011615610100020316600290046108e5929190611228565b506006820181600601908054600181600116156101000203166002900461090d929190611228565b50600782015481600701559050506001810190506107e1565b600160008054815260200190815260200160002060008082016000905560018201600061095391906112af565b60028201600061096391906112af565b60038201600061097391906112af565b60048201600061098391906112af565b60058201600061099391906112af565b6006820160006109a391906112af565b6007820160009055505060008081548092919060019003919050555050565b6001602052806000526040600020600091509050806000015490806001018054600181600116156101000203166002900480601f016020809104026020016040519081016040528092919081815260200182805460018160011615610100020316600290048015610a745780601f10610a4957610100808354040283529160200191610a74565b820191906000526020600020905b815481529060010190602001808311610a5757829003601f168201915b505050505090806002018054600181600116156101000203166002900480601f016020809104026020016040519081016040528092919081815260200182805460018160011615610100020316600290048015610b125780601f10610ae757610100808354040283529160200191610b12565b820191906000526020600020905b815481529060010190602001808311610af557829003601f168201915b505050505090806003018054600181600116156101000203166002900480601f016020809104026020016040519081016040528092919081815260200182805460018160011615610100020316600290048015610bb05780601f10610b8557610100808354040283529160200191610bb0565b820191906000526020600020905b815481529060010190602001808311610b9357829003601f168201915b505050505090806004018054600181600116156101000203166002900480601f016020809104026020016040519081016040528092919081815260200182805460018160011615610100020316600290048015610c4e5780601f10610c2357610100808354040283529160200191610c4e565b820191906000526020600020905b815481529060010190602001808311610c3157829003601f168201915b505050505090806005018054600181600116156101000203166002900480601f016020809104026020016040519081016040528092919081815260200182805460018160011615610100020316600290048015610cec5780601f10610cc157610100808354040283529160200191610cec565b820191906000526020600020905b815481529060010190602001808311610ccf57829003601f168201915b505050505090806006018054600181600116156101000203166002900480601f016020809104026020016040519081016040528092919081815260200182805460018160011615610100020316600290048015610d8a5780601f10610d5f57610100808354040283529160200191610d8a565b820191906000526020600020905b815481529060010190602001808311610d6d57829003601f168201915b5050505050908060070154905088565b6000808154809291906001019190505550604051806101000160405280600054815260200187815260200186815260200185815260200184815260200183815260200182815260200160008152506001600080548152602001908152602001600020600082015181600001556020820151816001019080519060200190610e229291906112f7565b506040820151816002019080519060200190610e3f9291906112f7565b506060820151816003019080519060200190610e5c9291906112f7565b506080820151816004019080519060200190610e799291906112f7565b5060a0820151816005019080519060200190610e969291906112f7565b5060c0820151816006019080519060200190610eb39291906112f7565b5060e08201518160070155905050505050505050565b600260003373ffffffffffffffffffffffffffffffffffffffff1673ffffffffffffffffffffffffffffffffffffffff16815260200190815260200160002060009054906101000a900460ff1615610f89576040517f08c379a00000000000000000000000000000000000000000000000000000000081526004018080602001828103825260168152602001807f596f75206861766520616c726561647920766f7465640000000000000000000081525060200191505060405180910390fd5b600060016000838152602001908152602001600020600001541415611016576040517f08c379a00000000000000000000000000000000000000000000000000000000081526004018080602001828103825260158152602001807f54686520696420646f6573206e6f74206578697374000000000000000000000081525060200191505060405180910390fd5b6001806000838152602001908152602001600020600701600082825401925050819055506001600260003373ffffffffffffffffffffffffffffffffffffffff1673ffffffffffffffffffffffffffffffffffffffff16815260200190815260200160002060006101000a81548160ff0219169083151502179055507f41a0f5adf9ba10547a8306f144f827b9822e960cca172fc1e767ef4c0f6f20ec81600160008481526020019081526020016000206001016001600085815260200190815260200160002060020160016000868152602001908152602001600020600701546040518085815260200180602001806020018481526020018381038352868181546001816001161561010002031660029004815260200191508054600181600116156101000203166002900480156111905780601f1061116557610100808354040283529160200191611190565b820191906000526020600020905b81548152906001019060200180831161117357829003601f168201915b50508381038252858181546001816001161561010002031660029004815260200191508054600181600116156101000203166002900480156112135780601f106111e857610100808354040283529160200191611213565b820191906000526020600020905b8154815290600101906020018083116111f657829003601f168201915b5050965050505050505060405180910390a150565b828054600181600116156101000203166002900490600052602060002090601f016020900481019282601f10611261578054855561129e565b8280016001018555821561129e57600052602060002091601f016020900482015b8281111561129d578254825591600101919060010190611282565b5b5090506112ab9190611377565b5090565b50805460018160011615610100020316600290046000825580601f106112d557506112f4565b601f0160209004906000526020600020908101906112f39190611377565b5b50565b828054600181600116156101000203166002900490600052602060002090601f016020900481019282601f1061133857805160ff1916838001178555611366565b82800160010185558215611366579182015b8281111561136557825182559160200191906001019061134a565b5b5090506113739190611377565b5090565b5b80821115611390576000816000905550600101611378565b509056fea2646970667358221220ae3e8155b15a21de8882bb5a5e78148fada98eec2c49c735b5c9aee876079fec64736f6c6343000700003368747470733a2f2f7265732e636c6f7564696e6172792e636f6d2f64796e62727a657a732f696d6167652f75706c6f61642f76313634323636373234372f75706c6f6164732f4252424d5f6979656574712e6a7067",
  "immutableReferences": {},
  "source": "// SPDX-License-Identifier: MIT\r\npragma solidity >=0.7.0;\r\n\r\ncontract Election {\r\n    // struct candidate\r\n    struct Candidate {\r\n        uint256 id;\r\n        string name;\r\n        string party;\r\n        string citizenshipNo;\r\n        string dob;\r\n        string img;\r\n        string email;\r\n        uint256 votecount;\r\n    }\r\n\r\n    // candidate count\r\n    uint256 public candidatesCount;\r\n\r\n    // mapping candidate\r\n    mapping(uint256 => Candidate) public candidates;\r\n\r\n    //mapping a voter\r\n    mapping(address => bool) public votedornot;\r\n\r\n    // constructor\r\n    constructor() {\r\n        // Here the candidates are initialized\r\n         addCandidates(\"KP Oli\",\"CPN\",\"010570487\",\"22/02/1952\",\"https://res.cloudinary.com/dynbrzezs/image/upload/v1642667247/uploads/BRBM_iyeetq.jpg\",\"kpoli1@nepal.com\");\r\n        addCandidates(\"Sher Bahadur Deuba\",\"NCP\",\"015678998\",\"30/05/1952\",\"https://res.cloudinary.com/dynbrzezs/image/upload/v1642667247/uploads/BRBM_iyeetq.jpg\",\"sherbdrdeuba@nepal.com\");\r\n        addCandidates(\"Gagan Thapa\",\"NCP\",\"015678795\",\"30/05/1982\",\"https://res.cloudinary.com/dynbrzezs/image/upload/v1642667247/uploads/BRBM_iyeetq.jpg\",\"gaganthapa@nepal.com\");\r\n        addCandidates(\"Puspa Kamal Dahal\",\"UML\",\"015676985\",\"30/05/1962\",\"https://res.cloudinary.com/dynbrzezs/image/upload/v1642667247/uploads/BRBM_iyeetq.jpg\",\"puspakdahal@nepal.com\");\r\n        addCandidates(\"Kamal Thapa\",\"RPP\",\"015677867\",\"30/05/1972\",\"https://res.cloudinary.com/dynbrzezs/image/upload/v1642667247/uploads/BRBM_iyeetq.jpg\",\"kamalthapa@nepal.com\");\r\n    }\r\n\r\n    //setting the addCandidates as public\r\n     function addCandidates(string memory name,string memory party,string memory citizenshipNo,string memory dob,string memory img,string memory email) public{\r\n        candidatesCount++;\r\n        candidates[candidatesCount] = Candidate(candidatesCount,name,party,citizenshipNo,dob,img,email,0);\r\n    }\r\n\r\n    //function to delete the canidate\r\n     function delCandidates(uint id) public{\r\n        while(id < candidatesCount){\r\n            candidates[id] = candidates[id+1];\r\n            id += 1;\r\n        }\r\n        delete candidates[candidatesCount];\r\n        candidatesCount--;\r\n    }\r\n\r\n\r\n\r\n    //setting up the event that is to be triggered once the transaction is done i.e voting\r\n     event votesuccess(\r\n        uint id,\r\n        string name,\r\n        string party,\r\n        uint votecount\r\n    );\r\n\r\n    function Vote(uint256 _id) public {\r\n        //make sure that the candiate has not votes\r\n        require(!votedornot[msg.sender], \"You have already voted\");\r\n\r\n        //make sure that the candidate is valid\r\n        require(candidates[_id].id != 0, \"The id does not exist\");\r\n\r\n        //now we increase the vote count of the candidate\r\n        candidates[_id].votecount += 1;\r\n\r\n        //now setting the voted value of the voter to be true\r\n        votedornot[msg.sender] = true;\r\n\r\n        emit votesuccess( _id, candidates[_id].name,candidates[_id].party, candidates[_id].votecount);\r\n    }\r\n}",
  "sourcePath": "C:\\Users\\HP\\Documents\\Ethereum Voting App\\contracts\\Election.sol",
  "compiler": {
    "name": "solc",
    "version": "0.7.0+commit.9e61f92b.Emscripten.clang"
  },
  "schemaVersion": "3.4.3",
  "updatedAt": "2022-01-25T14:59:13.624Z",
  "networkType": "ethereum",
  "devdoc": {
    "kind": "dev",
    "methods": {},
    "version": 1
  },
  "userdoc": {
    "kind": "user",
    "methods": {},
    "version": 1
  }
}